:100000000F289929AE29C329CE00030E83128C0034
:1000100004088D000A088E004F088F009A2A1028C5
:100020003623A6003723A7003823A8003923A900C8
:100030003A23AA003B23AB003C23AC003D23AD0098
:100040009E019F01A001A101A201A301A401A5019C
:1000500083012A2803108312061B0314003003189F
:100060000130970098011708A6001808A70017305C
:1000700083168500F0308600C03083129700170881
:10008000831681058B1700301E2383129700170CEF
:10009000031C4D28831285154F2883128511851D59
:1000A0005728023092000030930098216528AA302A
:1000B00083129E0000309F000130A4000030A50094
:1000C0000130A2000030A300FE2183128519E4282C
:1000D000061F6C2801306D2800309700061E72281C
:1000E0000130732800301706031DC6280030900029
:1000F000910000238312861E7F2801308028003063
:100100009700861F85280130862800301706031DBA
:100110009228AA309E0000309F000130A4000030D9
:10012000A500C1280310061B03140030031801307A
:100130009700980127081806031DA028260817060F
:100140000319A428DC30A528B4309E0000309F009D
:100150000310861A03140030031801309700980129
:1001600027081806031DB62826081706031DBF28F2
:100170000130A4000030A500A201A301E328A401DE
:10018000A5010130A2000030A300E328A401A501CD
:10019000A201A3010310861A0314003003180130D2
:1001A0009700980127081806031DD8282608170667
:1001B000031DDF288614861106100615E328861015
:1001C000861506140611FE218312051C34290830F9
:1001D000850600308519013090000030DF2283123F
:1001E000851D0B298B1201301E2383129700980165
:1001F00017089C0018089D0002301E2383129700E8
:10020000980117089A0018089B00023092000030ED
:10021000930098212629023083129000003091002B
:100220000023AA3083129E0000309F000130A800F6
:100230000030A9000130AA000030AB000130A4005A
:100240000030A5000130A2000030A300033083126B
:1002500099008A30980055309700970B2D29980BFC
:100260002D29990B2D2934298312851D6528851C7C
:10027000662901309A0703189B0A00309B07033058
:100280009000003091001B0893001A0892004E2243
:10029000831211089B0010089A001A08970017088B
:1002A00090000230DF2200308312920093009821E8
:1002B0000330831299008A30980055309700970BCD
:1002C0005F29980B5F29990B5F2966298312051D09
:1002D000652801309C0703189D0A00309D070330F4
:1002E0009000003091001D0893001C0892004E22DF
:1002F000831211089D0010089C001C089700170825
:1003000090000130DF220130831292000030930010
:1003100098210330831299008A3098005530970055
:10032000970B9029980B9029990B9029972965286C
:10033000EC2902301E23013A0319A12983128614E5
:10034000A3298312861002301E23003A0319AB2919
:1003500083120614080083120610080001301E23C1
:10036000013A0319B62983128615B829831286111A
:1003700001301E23003A0319C02983120615080014
:1003800083120611080002301E23013A0319CB29FB
:1003900083128614CD298312861002301E23003A60
:1003A0000319D52983120614D729831206100130A8
:1003B0001E23013A0319DF2983128615E1298312CE
:1003C000861101301E23003A0319E929831206150C
:1003D000080083120611080083121308003A03195B
:1003E000F229FD29120884000330040203180800D2
:1003F00000308A00013004078200080083122208BE
:1004000023040319102A240825040319102A280894
:100410002904031D0F2A2A082B040319102A8B16FE
:10042000240825040319202A2808290403192F2A3F
:1004300022082304031D1D2A8B16A801A9012F2AB7
:1004400028082904031D2F2A8610A401A5012208CB
:10045000230403198B120130A8000030A9002208E0
:10046000230403193E2A2A082B0403190800240830
:10047000250403198B16AA01AB0108002A082B04D6
:10048000031D08008611A201A301240825040319F5
:100490008B120130AA000030AB00080083129601D5
:1004A000931F592A92099309920A0319930A9601F4
:1004B000960A911F602A90099109900A0319910ADE
:1004C0001008110403198D2A9501950A911B742AAD
:1004D00001300310900D910DFF3E031D692A01307C
:1004E000940014089507662A11081302031D7A2A3E
:1004F00010081202031C822A100892021108031C21
:100500009303930201300310910C900CFF3E031DE6
:10051000832A01309502031D742A16080319952AAF
:1005200092099309920A0319930A13089100120879
:10053000900008000B1DD42A2C082D040319B72A9B
:100540001E088100240825040319AC2A220823046C
:100550000319AC2A1E08810024082504031D8610F7
:1005600022082304031D8611AC01AD01D32A1E030A
:10057000FF3AFF3E8100240825040319C72A2208F8
:1005800023040319C72A1E03FF3AFF3E81002408F3
:100590002504031D861422082304031D861501303B
:1005A000AC000030AD000B110F08CF000E088A0020
:1005B0000D0884000C0E8300CE0E4E0E090083122F
:1005C000920083168818E12A831212088900100805
:1005D00088003F30910011088316880583120310AC
:1005E0008B1B03148B138316081555308900AA3012
:1005F0008900881408118312031C08008B17080057
:100600000C2B061006110800861086110800061033
:10061000061186108611080083121108003A03198A
:10062000122B1D2B1008840003300402031808004D
:1006300003308A003E3004078200080083129100D4
:10064000640083168818202B8312110889003F301C
:100650009000100883168805081403100818031466
:1006600000300318013083120808080001340034F8
:10067000013400340134003401340034012B042BE4
:02068000072B46
:02400E00F2FFBF
:00000001FF
